{
  "contractName": "DappToken",
  "abi": [
    {
      "inputs": [],
      "stateMutability": "nonpayable",
      "type": "constructor"
    },
    {
      "inputs": [],
      "name": "name",
      "outputs": [
        {
          "internalType": "string",
          "name": "",
          "type": "string"
        }
      ],
      "stateMutability": "view",
      "type": "function",
      "constant": true
    },
    {
      "inputs": [],
      "name": "totalSupply",
      "outputs": [
        {
          "internalType": "uint256",
          "name": "",
          "type": "uint256"
        }
      ],
      "stateMutability": "view",
      "type": "function",
      "constant": true
    }
  ],
  "bytecode": "0x60806040526040518060400160405280600a81526020017f4461707020546f6b656e000000000000000000000000000000000000000000008152506000908051906020019061004f92919061006c565b5034801561005c57600080fd5b50620f4240600181905550610170565b8280546100789061013e565b90600052602060002090601f01602090048101928261009a57600085556100e1565b82601f106100b357805160ff19168380011785556100e1565b828001600101855582156100e1579182015b828111156100e05782518255916020019190600101906100c5565b5b5090506100ee91906100f2565b5090565b5b8082111561010b5760008160009055506001016100f3565b5090565b7f4e487b7100000000000000000000000000000000000000000000000000000000600052602260045260246000fd5b6000600282049050600182168061015657607f821691505b6020821081141561016a5761016961010f565b5b50919050565b6102918061017f6000396000f3fe608060405234801561001057600080fd5b50600436106100365760003560e01c806306fdde031461003b57806318160ddd14610059575b600080fd5b610043610077565b60405161005091906101a4565b60405180910390f35b610061610105565b60405161006e91906101df565b60405180910390f35b6000805461008490610229565b80601f01602080910402602001604051908101604052809291908181526020018280546100b090610229565b80156100fd5780601f106100d2576101008083540402835291602001916100fd565b820191906000526020600020905b8154815290600101906020018083116100e057829003601f168201915b505050505081565b60015481565b600081519050919050565b600082825260208201905092915050565b60005b8381101561014557808201518184015260208101905061012a565b83811115610154576000848401525b50505050565b6000601f19601f8301169050919050565b60006101768261010b565b6101808185610116565b9350610190818560208601610127565b6101998161015a565b840191505092915050565b600060208201905081810360008301526101be818461016b565b905092915050565b6000819050919050565b6101d9816101c6565b82525050565b60006020820190506101f460008301846101d0565b92915050565b7f4e487b7100000000000000000000000000000000000000000000000000000000600052602260045260246000fd5b6000600282049050600182168061024157607f821691505b60208210811415610255576102546101fa565b5b5091905056fea264697066735822122002df630ad56a30ea4666006f7f609e4434e6cf8b9b740ee1fa38ee4da4db74d464736f6c634300080a0033",
  "immutableReferences": {},
  "source": "// SPDX-License-Identifier: MIT\npragma solidity >=0.4.22 <0.9.0;\n\ncontract DappToken {\n    string public name = \"Dapp Token\";\n    uint256 public totalSupply;\n\n    constructor() {\n        totalSupply = 1000000;\n    }\n}\n",
  "sourcePath": "/Users/itskshivam/Desktop/blockchaiin/token_sale/contracts/DappToken.sol",
  "compiler": {
    "name": "solc",
    "version": "0.8.10+commit.fc410830.Emscripten.clang"
  },
  "schemaVersion": "3.4.3",
  "updatedAt": "2021-11-23T10:16:28.766Z",
  "networkType": "ethereum",
  "devdoc": {
    "kind": "dev",
    "methods": {},
    "version": 1
  },
  "userdoc": {
    "kind": "user",
    "methods": {},
    "version": 1
  }
}